{
  "contractName": "DecentralBank",
  "abi": [
    {
      "inputs": [
        {
          "internalType": "contract URI",
          "name": "_uri",
          "type": "address"
        },
        {
          "internalType": "contract Tether",
          "name": "_tether",
          "type": "address"
        }
      ],
      "stateMutability": "nonpayable",
      "type": "constructor"
    },
    {
      "inputs": [
        {
          "internalType": "address",
          "name": "",
          "type": "address"
        }
      ],
      "name": "hasStaked",
      "outputs": [
        {
          "internalType": "bool",
          "name": "",
          "type": "bool"
        }
      ],
      "stateMutability": "view",
      "type": "function",
      "constant": true
    },
    {
      "inputs": [
        {
          "internalType": "address",
          "name": "",
          "type": "address"
        }
      ],
      "name": "isStaking",
      "outputs": [
        {
          "internalType": "bool",
          "name": "",
          "type": "bool"
        }
      ],
      "stateMutability": "view",
      "type": "function",
      "constant": true
    },
    {
      "inputs": [],
      "name": "name",
      "outputs": [
        {
          "internalType": "string",
          "name": "",
          "type": "string"
        }
      ],
      "stateMutability": "view",
      "type": "function",
      "constant": true
    },
    {
      "inputs": [],
      "name": "owner",
      "outputs": [
        {
          "internalType": "address",
          "name": "",
          "type": "address"
        }
      ],
      "stateMutability": "view",
      "type": "function",
      "constant": true
    },
    {
      "inputs": [
        {
          "internalType": "uint256",
          "name": "",
          "type": "uint256"
        }
      ],
      "name": "stakers",
      "outputs": [
        {
          "internalType": "address",
          "name": "",
          "type": "address"
        }
      ],
      "stateMutability": "view",
      "type": "function",
      "constant": true
    },
    {
      "inputs": [
        {
          "internalType": "address",
          "name": "",
          "type": "address"
        }
      ],
      "name": "stakingBalance",
      "outputs": [
        {
          "internalType": "uint256",
          "name": "",
          "type": "uint256"
        }
      ],
      "stateMutability": "view",
      "type": "function",
      "constant": true
    },
    {
      "inputs": [],
      "name": "tether",
      "outputs": [
        {
          "internalType": "contract Tether",
          "name": "",
          "type": "address"
        }
      ],
      "stateMutability": "view",
      "type": "function",
      "constant": true
    },
    {
      "inputs": [],
      "name": "uri",
      "outputs": [
        {
          "internalType": "contract URI",
          "name": "",
          "type": "address"
        }
      ],
      "stateMutability": "view",
      "type": "function",
      "constant": true
    },
    {
      "inputs": [
        {
          "internalType": "uint256",
          "name": "_amount",
          "type": "uint256"
        }
      ],
      "name": "depositTokens",
      "outputs": [],
      "stateMutability": "nonpayable",
      "type": "function"
    },
    {
      "inputs": [],
      "name": "unstakeTokens",
      "outputs": [],
      "stateMutability": "nonpayable",
      "type": "function"
    },
    {
      "inputs": [],
      "name": "issueTokens",
      "outputs": [],
      "stateMutability": "nonpayable",
      "type": "function"
    }
  ],
  "bytecode": "0x60806040526040518060400160405280600f81526020017f5572696469756d2046696e616e63650000000000000000000000000000000000815250600090805190602001906200005192919062000150565b503480156200005f57600080fd5b50604051620014cb380380620014cb8339818101604052810190620000859190620002c3565b81600360006101000a81548173ffffffffffffffffffffffffffffffffffffffff021916908373ffffffffffffffffffffffffffffffffffffffff16021790555080600260006101000a81548173ffffffffffffffffffffffffffffffffffffffff021916908373ffffffffffffffffffffffffffffffffffffffff16021790555033600160006101000a81548173ffffffffffffffffffffffffffffffffffffffff021916908373ffffffffffffffffffffffffffffffffffffffff16021790555050506200036f565b8280546200015e9062000339565b90600052602060002090601f016020900481019282620001825760008555620001ce565b82601f106200019d57805160ff1916838001178555620001ce565b82800160010185558215620001ce579182015b82811115620001cd578251825591602001919060010190620001b0565b5b509050620001dd9190620001e1565b5090565b5b80821115620001fc576000816000905550600101620001e2565b5090565b600080fd5b600073ffffffffffffffffffffffffffffffffffffffff82169050919050565b6000620002328262000205565b9050919050565b6000620002468262000225565b9050919050565b620002588162000239565b81146200026457600080fd5b50565b60008151905062000278816200024d565b92915050565b60006200028b8262000225565b9050919050565b6200029d816200027e565b8114620002a957600080fd5b50565b600081519050620002bd8162000292565b92915050565b60008060408385031215620002dd57620002dc62000200565b5b6000620002ed8582860162000267565b92505060206200030085828601620002ac565b9150509250929050565b7f4e487b7100000000000000000000000000000000000000000000000000000000600052602260045260246000fd5b600060028204905060018216806200035257607f821691505b602082108114156200036957620003686200030a565b5b50919050565b61114c806200037f6000396000f3fe608060405234801561001057600080fd5b50600436106100a95760003560e01c80638da5cb5b116100715780638da5cb5b14610154578063a5ce413b14610172578063c93c8f341461017c578063dd49756e146101ac578063eac989f8146101c8578063fd5e6dd1146101e6576100a9565b806306fdde03146100ae57806345bc78ab146100cc5780635efc071a146100fc57806360ab58521461011a5780636f49712b14610124575b600080fd5b6100b6610216565b6040516100c39190610ae0565b60405180910390f35b6100e660048036038101906100e19190610b65565b6102a4565b6040516100f39190610bab565b60405180910390f35b6101046102bc565b6040516101119190610c25565b60405180910390f35b6101226102e2565b005b61013e60048036038101906101399190610b65565b6104d8565b60405161014b9190610c5b565b60405180910390f35b61015c6104f8565b6040516101699190610c85565b60405180910390f35b61017a61051e565b005b61019660048036038101906101919190610b65565b6106e6565b6040516101a39190610c5b565b60405180910390f35b6101c660048036038101906101c19190610ccc565b610706565b005b6101d06109e2565b6040516101dd9190610d1a565b60405180910390f35b61020060048036038101906101fb9190610ccc565b610a08565b60405161020d9190610c85565b60405180910390f35b6000805461022390610d64565b80601f016020809104026020016040519081016040528092919081815260200182805461024f90610d64565b801561029c5780601f106102715761010080835404028352916020019161029c565b820191906000526020600020905b81548152906001019060200180831161027f57829003601f168201915b505050505081565b60056020528060005260406000206000915090505481565b600260009054906101000a900473ffffffffffffffffffffffffffffffffffffffff1681565b600160009054906101000a900473ffffffffffffffffffffffffffffffffffffffff1673ffffffffffffffffffffffffffffffffffffffff163373ffffffffffffffffffffffffffffffffffffffff1614610372576040517f08c379a000000000000000000000000000000000000000000000000000000000815260040161036990610e08565b60405180910390fd5b60005b6004805490508110156104d55760006004828154811061039857610397610e28565b5b9060005260206000200160009054906101000a900473ffffffffffffffffffffffffffffffffffffffff16905060006009600560008473ffffffffffffffffffffffffffffffffffffffff1673ffffffffffffffffffffffffffffffffffffffff168152602001908152602001600020546104139190610eb5565b905060008111156104c057600360009054906101000a900473ffffffffffffffffffffffffffffffffffffffff1673ffffffffffffffffffffffffffffffffffffffff1663a9059cbb83836040518363ffffffff1660e01b815260040161047b929190610ee6565b6020604051808303816000875af115801561049a573d6000803e3d6000fd5b505050506040513d601f19601f820116820180604052508101906104be9190610f3b565b505b505080806104cd90610f68565b915050610375565b50565b60076020528060005260406000206000915054906101000a900460ff1681565b600160009054906101000a900473ffffffffffffffffffffffffffffffffffffffff1681565b6000600560003373ffffffffffffffffffffffffffffffffffffffff1673ffffffffffffffffffffffffffffffffffffffff168152602001908152602001600020549050600081116105a5576040517f08c379a000000000000000000000000000000000000000000000000000000000815260040161059c90610ffd565b60405180910390fd5b600260009054906101000a900473ffffffffffffffffffffffffffffffffffffffff1673ffffffffffffffffffffffffffffffffffffffff1663a9059cbb33836040518363ffffffff1660e01b8152600401610602929190610ee6565b6020604051808303816000875af1158015610621573d6000803e3d6000fd5b505050506040513d601f19601f820116820180604052508101906106459190610f3b565b506000600560003373ffffffffffffffffffffffffffffffffffffffff1673ffffffffffffffffffffffffffffffffffffffff168152602001908152602001600020819055506000600760003373ffffffffffffffffffffffffffffffffffffffff1673ffffffffffffffffffffffffffffffffffffffff16815260200190815260200160002060006101000a81548160ff02191690831515021790555050565b60066020528060005260406000206000915054906101000a900460ff1681565b60008111610749576040517f08c379a000000000000000000000000000000000000000000000000000000000815260040161074090611069565b60405180910390fd5b600260009054906101000a900473ffffffffffffffffffffffffffffffffffffffff1673ffffffffffffffffffffffffffffffffffffffff166323b872dd3330846040518463ffffffff1660e01b81526004016107a893929190611089565b6020604051808303816000875af11580156107c7573d6000803e3d6000fd5b505050506040513d601f19601f820116820180604052508101906107eb9190610f3b565b5080600560003373ffffffffffffffffffffffffffffffffffffffff1673ffffffffffffffffffffffffffffffffffffffff1681526020019081526020016000205461083791906110c0565b600560003373ffffffffffffffffffffffffffffffffffffffff1673ffffffffffffffffffffffffffffffffffffffff16815260200190815260200160002081905550600660003373ffffffffffffffffffffffffffffffffffffffff1673ffffffffffffffffffffffffffffffffffffffff16815260200190815260200160002060009054906101000a900460ff1661092f576004339080600181540180825580915050600190039060005260206000200160009091909190916101000a81548173ffffffffffffffffffffffffffffffffffffffff021916908373ffffffffffffffffffffffffffffffffffffffff1602179055505b6001600760003373ffffffffffffffffffffffffffffffffffffffff1673ffffffffffffffffffffffffffffffffffffffff16815260200190815260200160002060006101000a81548160ff0219169083151502179055506001600660003373ffffffffffffffffffffffffffffffffffffffff1673ffffffffffffffffffffffffffffffffffffffff16815260200190815260200160002060006101000a81548160ff02191690831515021790555050565b600360009054906101000a900473ffffffffffffffffffffffffffffffffffffffff1681565b60048181548110610a1857600080fd5b906000526020600020016000915054906101000a900473ffffffffffffffffffffffffffffffffffffffff1681565b600081519050919050565b600082825260208201905092915050565b60005b83811015610a81578082015181840152602081019050610a66565b83811115610a90576000848401525b50505050565b6000601f19601f8301169050919050565b6000610ab282610a47565b610abc8185610a52565b9350610acc818560208601610a63565b610ad581610a96565b840191505092915050565b60006020820190508181036000830152610afa8184610aa7565b905092915050565b600080fd5b600073ffffffffffffffffffffffffffffffffffffffff82169050919050565b6000610b3282610b07565b9050919050565b610b4281610b27565b8114610b4d57600080fd5b50565b600081359050610b5f81610b39565b92915050565b600060208284031215610b7b57610b7a610b02565b5b6000610b8984828501610b50565b91505092915050565b6000819050919050565b610ba581610b92565b82525050565b6000602082019050610bc06000830184610b9c565b92915050565b6000819050919050565b6000610beb610be6610be184610b07565b610bc6565b610b07565b9050919050565b6000610bfd82610bd0565b9050919050565b6000610c0f82610bf2565b9050919050565b610c1f81610c04565b82525050565b6000602082019050610c3a6000830184610c16565b92915050565b60008115159050919050565b610c5581610c40565b82525050565b6000602082019050610c706000830184610c4c565b92915050565b610c7f81610b27565b82525050565b6000602082019050610c9a6000830184610c76565b92915050565b610ca981610b92565b8114610cb457600080fd5b50565b600081359050610cc681610ca0565b92915050565b600060208284031215610ce257610ce1610b02565b5b6000610cf084828501610cb7565b91505092915050565b6000610d0482610bf2565b9050919050565b610d1481610cf9565b82525050565b6000602082019050610d2f6000830184610d0b565b92915050565b7f4e487b7100000000000000000000000000000000000000000000000000000000600052602260045260246000fd5b60006002820490506001821680610d7c57607f821691505b60208210811415610d9057610d8f610d35565b5b50919050565b7f4f6e6c7920746865206f776e6572722063616e206d616b65207468617420636160008201527f6c6c000000000000000000000000000000000000000000000000000000000000602082015250565b6000610df2602283610a52565b9150610dfd82610d96565b604082019050919050565b60006020820190508181036000830152610e2181610de5565b9050919050565b7f4e487b7100000000000000000000000000000000000000000000000000000000600052603260045260246000fd5b7f4e487b7100000000000000000000000000000000000000000000000000000000600052601260045260246000fd5b7f4e487b7100000000000000000000000000000000000000000000000000000000600052601160045260246000fd5b6000610ec082610b92565b9150610ecb83610b92565b925082610edb57610eda610e57565b5b828204905092915050565b6000604082019050610efb6000830185610c76565b610f086020830184610b9c565b9392505050565b610f1881610c40565b8114610f2357600080fd5b50565b600081519050610f3581610f0f565b92915050565b600060208284031215610f5157610f50610b02565b5b6000610f5f84828501610f26565b91505092915050565b6000610f7382610b92565b91507fffffffffffffffffffffffffffffffffffffffffffffffffffffffffffffffff821415610fa657610fa5610e86565b5b600182019050919050565b7f5374616b696e672062616c616e6365206d7573742062652061626f7665203000600082015250565b6000610fe7601f83610a52565b9150610ff282610fb1565b602082019050919050565b6000602082019050818103600083015261101681610fda565b9050919050565b7f616d6f756e742063616e6e6f7420626520300000000000000000000000000000600082015250565b6000611053601283610a52565b915061105e8261101d565b602082019050919050565b6000602082019050818103600083015261108281611046565b9050919050565b600060608201905061109e6000830186610c76565b6110ab6020830185610c76565b6110b86040830184610b9c565b949350505050565b60006110cb82610b92565b91506110d683610b92565b9250827fffffffffffffffffffffffffffffffffffffffffffffffffffffffffffffffff0382111561110b5761110a610e86565b5b82820190509291505056fea26469706673582212208f19748287c38841c7b792d6d91bc0e00fe673998f8627c0871d5d71ab84626a64736f6c634300080a0033",
  "immutableReferences": {},
  "source": "pragma solidity ^0.8.10;\r\n\r\nimport './URI.sol';\r\nimport './Tether.sol';\r\n\r\ncontract DecentralBank {\r\n\r\n    string public name = 'Uridium Finance';\r\n    address public owner;\r\n    Tether public tether;\r\n    URI public uri;\r\n\r\n    address[] public stakers;\r\n\r\n    mapping(address => uint) public stakingBalance;\r\n    mapping(address => bool) public hasStaked;\r\n    mapping(address => bool) public isStaking;\r\n\r\n    constructor(URI _uri, Tether _tether) {\r\n        uri = _uri;\r\n        tether = _tether;\r\n        owner = msg.sender;\r\n    }\r\n\r\n    // Funcion de Staking\r\n    function depositTokens(uint _amount) public {\r\n        // Requerir cantidad de staking debe ser mayor que 0\r\n        require(_amount > 0, 'amount cannot be 0');\r\n\r\n        // Transferir tether tokens al contrato para staking\r\n        tether.transferFrom(msg.sender, address(this), _amount);\r\n\r\n        // Actualizar balance de staking\r\n        stakingBalance[msg.sender] = stakingBalance[msg.sender] + _amount;\r\n\r\n        if(!hasStaked[msg.sender]) {\r\n            stakers.push(msg.sender);\r\n        }\r\n\r\n        // Actualizar balance de staking\r\n        isStaking[msg.sender] = true;\r\n        hasStaked[msg.sender] = true;\r\n    }\r\n\r\n    // Funcion de UnStaking\r\n    function unstakeTokens() public {\r\n        uint balance = stakingBalance[msg.sender];\r\n\r\n        // Requerir que la cantidad sea mayor que cero\r\n        require(balance > 0, 'Staking balance must be above 0');\r\n\r\n        // Transferir tokens a la persona\r\n        tether.transfer(msg.sender, balance);\r\n\r\n        // Resetear balance de staking\r\n        stakingBalance[msg.sender] = 0;\r\n\r\n        // Actualizar estado isStaking\r\n        isStaking[msg.sender] = false;\r\n    }\r\n\r\n    // Funcion de Recompensas\r\n    function issueTokens() public {\r\n        // Solo el dueno debe poder enviar tokens\r\n        require(msg.sender == owner, 'Only the ownerr can make that call');\r\n\r\n        // Recompensar al cliente por hacer staking\r\n        for (uint i=0; i<stakers.length; i++) {\r\n              address recipient = stakers[i]; \r\n              uint balance = stakingBalance[recipient] / 9;\r\n              if(balance > 0) {\r\n              uri.transfer(recipient, balance);\r\n          }\r\n        }\r\n    }\r\n\r\n}",
  "sourcePath": "/mnt/c/Users/Sparrow/Desktop/uridium/src/contracts/DecentralBank.sol",
  "compiler": {
    "name": "solc",
    "version": "0.8.10+commit.fc410830.Emscripten.clang"
  },
  "schemaVersion": "3.4.3",
  "updatedAt": "2021-11-27T11:45:34.556Z",
  "networkType": "ethereum",
  "devdoc": {
    "kind": "dev",
    "methods": {},
    "version": 1
  },
  "userdoc": {
    "kind": "user",
    "methods": {},
    "version": 1
  }
}